:020000040800F2
:1000000000000220890100081D02000825020008E6
:100010002D020008350200083D0200080000000023
:100020000000000000000000000000004502000881
:100030004D02000800000000550200085D020008A3
:100040001502000815020008150200081502000834
:100050001502000815020008150200081502000824
:100060001502000815020008150200081502000814
:100070001502000815020008150200081502000804
:1000800015020008150200081502000815020008F4
:10009000150200081502000815020008590600089C
:1000A00015020008150200081502000815020008D4
:1000B00015020008150200081502000815020008C4
:1000C00015020008150200081502000815020008B4
:1000D00015020008150200081502000815020008A4
:1000E0001502000815020008150200081502000894
:1000F0001502000815020008150200081502000884
:100100001502000815020008150200081502000873
:100110001502000815020008150200081502000863
:100120001502000815020008150200081502000853
:100130001502000815020008150200081502000843
:100140001502000815020008150200081502000833
:100150001502000815020008150200081502000823
:100160001502000815020008150200081502000813
:100170001502000815020008150200081502000803
:10018000150200081502000880B584B000AF0D4BC1
:10019000BB600D4B7B60BB683B6004E03B681A1D95
:1001A0003A6000221A607A683B689A42F6D801F0F9
:1001B000E3F900F0F1FDF86001F014FAF86801F0DD
:1001C0002FFA00BFC40800204409002080B584B085
:1001D00000AF0D4BFB600D4BBB600D4B7B60BB68F4
:1001E0003B6007E03B681A1D3A60FA68111DF96030
:1001F00012681A607A683B689A42F3D801F016FADE
:100200001037BD4680BD00BFAC6E00080000002066
:10021000C408002080B400AFFEE700BF80B400AF88
:10022000FEE700BF80B400AFFEE700BF80B400AFC0
:10023000FEE700BF80B400AFFEE700BF80B400AFB0
:10024000FEE700BF80B400AFFEE700BF80B400AFA0
:10025000FEE700BF80B400AFFEE700BF80B400AF90
:04026000FEE700BFF6
:04026400CD010008C0
:1002680090B585B000AF0446084611461A462346A5
:10027800FB710346BB710B467B7113463B71002033
:1002880000F0C0FC022000F0BDFC032000F0BAFC26
:10029800012000F0B7FC022000F0E2FC002000F092
:1002A800DFFC0023FB730023BB7397F820307A2B05
:1002B80004D8674A97F82030937102E0644B7A2299
:1002C8009A713B79202B03D9614B2022DA7102E025
:1002D8005F4A3B79D371FB79032B02D10123FB736E
:1002E80007E0FB79042B02D10223FB7301E003230F
:1002F800FB73574ABB795371554A7B791371544A3A
:10030800FB7913721AE0BB7BBA7B5249895C504A6D
:1003180013440A465A72BB7BBA7B4E49895C4C4AE5
:1003280013440A469A73BB7BBA7B4B49895C484A9B
:1003380013440A46DA74BB7B0133BB73BA7BFB797F
:100348009A42E0D3424B05221A76414BFF22DA76D5
:10035800424800F023FB00F08BFB01203F2100F016
:10036800FDF902203F2100F0F9F9FB7B0320194633
:1003780000F0F4F90420FF2100F0F0F997F820309C
:100388000520194600F0EAF9BB79DB00DAB27B797F
:100398005B00DBB21343DBB2DBB20620194600F088
:1003A800DDF91D20042100F0D9F91C203F2100F0BF
:1003B800D5F9702000F01AF93B791120194600F0A0
:1003C800CDF93B791220194600F0C8F93B79132082
:1003D800194600F0C3F93B791420194600F0BEF91C
:1003E8003B791520194600F0B9F93B7916201946D2
:1003F80000F0B4F91A4800F05FF81A48012100F03B
:1004080079F81948022100F075F81848052100F01C
:1004180071F800203A2100F0A1F943F6982000F085
:10042800BDFA00F0E5F900F06BFA00F0EDF800F025
:10043800FDF800F01DF8064B002283F83C2002204E
:1004480000F026FC002000F023FC1437BD4690BDC8
:10045800000900200800002000000020A0860100FC
:100468000909002013090020180900201B09002091
:1004780080B582B000AF0F4B4FF480725A830020D2
:1004880000F02CF90346FB71FB7943F00103FB7183
:10049800702000F0ABF8FB790020194600F05EF9F7
:1004A800044B4FF480721A83822000F077FA0837E1
:1004B800BD4680BD000C024080B582B000AF7860B8
:1004C8000B4B1B7A0A2079681A4600F06DF9042054
:1004D80000F064FA064B1B7A102079681A4600F07F
:1004E80063F9042000F05AFA0837BD4680BD00BF02
:1004F8000009002080B584B000AF78600B46FB701F
:10050800FB78002B0AD10A23FB731A4B1B7AFA7B60
:10051800104679681A4600F047F928E0FB78012B65
:100528000AD10B23FB73134B1B7AFA7B10467968AD
:100538001A4600F039F91AE0FB78022B02D10C2395
:10054800FB730DE0FB78032B02D10D23FB7307E04F
:10055800FB78042B02D10E23FB7301E00F23FB73FE
:100568007B681B78FA7B1046194600F0F7F81037BD
:10057800BD4680BD0009002080B582B000AF78601C
:10058800094B80225A830948602100F0D3FA0748B2
:100598007968FF22012300F013FB034B80221A83A2
:1005A8000837BD4680BD00BF000C0240003C00403B
:1005B80080B582B000AF78600B46FB70094B802293
:1005C8005A830948612100F0B5FAFB780648796832
:1005D800FF2200F0F5FA034B80221A830837BD4644
:1005E80080BD00BF000C0240003C004080B582B0D6
:1005F80000AF0346FB71FB790720194600F0AEF8FF
:100608000837BD4680BD00BF80B500AF054B8022CE
:100618005A830548E12100F08DFA024B80221A83A3
:1006280080BD00BF000C0240003C004080B500AF18
:10063800054B80225A830548E22100F07BFA024BE1
:1006480080221A8380BD00BF000C0240003C00409D
:1006580080B582B000AF4FF4007000F04BFD034648
:10066800002B32D04FF4007000F05EFD002000F047
:1006780027FB072000F032F80346FB71FB7903F0F3
:100688004003002B21D0124B4FF480725A83BB1DBC
:100698001846FFF771FFBB79202B02D8BB79002BD6
:1006A80002D1FFF7C3FF0CE0BB790A481946FFF7F0
:1006B8007FFF0720402100F051F8074B002283F804
:1006C8003C20034B4FF480721A830837BD4680BD27
:1006D800000C02401C0900200009002080B584B0ED
:1006E80000AF0346FB710B4B80225A83FB790A4803
:1006F800194600F01FFA0848FF2100F01BFA0346CC
:10070800FB73044B80221A83FB7B18461037BD46C7
:1007180080BD00BF000C0240003C004080B582B0A4
:1007280000AF03463960FB711346BB71094B802249
:100738005A83FB790848194600F0FCF9BB7906484A
:100748003968FF2200F03CFA024B80221A830837EE
:10075800BD4680BD000C0240003C004080B584B01E
:1007680000AF03460A46FB711346BB710C4B80224F
:100778005A83FB7943F02003DBB20A48194600F09C
:10078800D9F90346FB73BB790648194600F0D2F93C
:10079800034B80221A83FB7B18461037BD4680BD69
:1007A800000C0240003C004080B582B000AF034618
:1007B8003960FB711346BB710B4B80225A83FB795E
:1007C80043F02003DBB20948194600F0B3F9BB79BE
:1007D800064839681A4600F0D7F9034B80221A8375
:1007E8000837BD4680BD00BF000C0240003C0040F9
:1007F80080B584B000AF0120FFF770FF0346FB739C
:100808000220FFF76BFF0346BB730320FFF766FF69
:1008180003467B730420FFF761FF03463B73052003
:10082800FFF75CFF0346FB720620FFF757FF0346FE
:10083800BB721C20FFF752FF03467B721D20FFF797
:100848004DFF03463B720020FFF748FF0346FB714C
:100858000720FFF743FF0346BB711D4800F08EFFDA
:10086800FB7B1C48194600F089FFBB7B1A481946D8
:1008780000F084FF7B7B1948194600F07FFFFB7A64
:100888001748194600F07AFF3B7B1648194600F0D6
:1008980075FFBB7A1448194600F070FF7B7A13483D
:1008A800194600F06BFF3B7A1148194600F066FFC5
:1008B800FB791048194600F061FFBB790E481946CC
:1008C80000F05CFF0D4800F069F81037BD4680BDA8
:1008D800706C0008846C00088C6C0008986C000828
:1008E800A06C0008A86C0008B46C0008C06C000874
:1008F800CC6C0008DC6C0008E86C000800093D00BE
:1009080080B586B000AF1F4B4FF480725A831E4BE0
:100918001B7A07F11002102011461A46FFF7FEFE57
:10092800194B1B7A07F108020A2011461A46FFF7ED
:10093800F5FE154B1B7A3A460B2011461A46FFF76F
:10094800EDFE0C20FFF7CAFE0346FB750F20FFF7EC
:10095800C5FE0346BB7507F110030C48194600F0A5
:100968000DFF07F108030A48194600F007FF3B4648
:100978000848194600F002FF074800F00FF818373A
:10098800BD4680BD000C024000090020F46C000840
:10099800FC6C0008046D000800093D0080B485B0B7
:1009A80000AF786007E01923FB6000BFFB685A1EA0
:1009B800FA60002BFAD17B685A1E7A60002BF2D1BC
:1009C8001437BD465DF8047B704700BF80B588B01A
:1009D80000AF0023BB770023FB7703237B77022339
:1009E8003B770420012100F083FC4FF4E053BB6106
:1009F80007F118031C48194600F0A4FB1A480A21FD
:100A0800062200F02DFC18480B21062200F028FCD5
:100A180015480C21062200F023FC4FF40040012168
:100A280000F084FC3B1D184600F000FD20233B82AB
:100A380000233B810023BB8000237B824FF4827319
:100A4800FB8000237B810023BB814FF40073FB8173
:100A58003B1D0648194600F0A5FC0448012100F09A
:100A680009FD2037BD4680BD00080240003C00401B
:100A780080B586B000AF0820012100F039FC0123C1
:100A88003B750023BB750023FB7503237B7580230F
:100A98003B6107F110032548194600F053FB234B2F
:100AA80080221A834FF480733B6107F110031F48BB
:100AB800194600F047FB1D4B4FF480725A834FF4E0
:100AC80000733B6100233B750123FB7503237B7592
:100AD80007F110031648194600F034FB4FF4804024
:100AE800012100F041FC0420092100F0FFFC4FF433
:100AF80000737B6000233B720C237B720123BB7263
:100B08003B1D184600F084FA17233B730F237B73B1
:100B18000023BB730123FB7307F10C03184600F095
:100B280017FAFFF753FF1837BD4680BD000C024087
:100B38000010024080B582B000AF78600B46FB70B1
:100B4800FB789AB27B689A8100BF7868022100F02E
:100B5800B1FC0346002BF8D000BF7868012100F0F3
:100B6800A9FC0346002BF8D000BF7868802100F06C
:100B7800A1FC0346002BF8D17B689B899BB2DBB2B2
:100B880018460837BD4680BD80B586B000AFF8600E
:100B9800B9601346FB710023FB750AE0FB7DBA6858
:100BA80013441B78F8681946FFF7C4FFFB7D01332F
:100BB800FB75FA7DFB799A42F0D31837BD4680BDA4
:100BC80090B587B000AFF860B96011461A460B4679
:100BD800FB711346BB710023FB750CE0FB7DBA6803
:100BE800D418FB79F8681946FFF7A4FF0346237069
:100BF800FB7D0133FB75FA7DBB799A42EED31C3736
:100C0800BD4690BD80B584B000AF0346FB71FB794B
:100C1800104A52F823301846012100F069FBFB798D
:100C28000D4A32F81330BB6001233B730023BB73BA
:100C38000123FB7302237B73FB79084A52F82320B4
:100C480007F108031046194600F07CFA1037BD4634
:100C580080BD00BF146D00080C6D00081000002056
:100C680080B483B000AF0346FB71FB79064A52F8A3
:100C78002330FA79054931F812201A830C37BD461A
:100C88005DF8047B704700BF100000200C6D000861
:100C980080B483B000AF0346FB71FB79064A52F873
:100CA8002330FA79054931F812205A830C37BD46AA
:100CB8005DF8047B704700BF100000200C6D000831
:100CC80080B483B000AF0346FB71FB79094A52F840
:100CD8002330FA79074951F822205269F9790648F0
:100CE80030F811104A405A610C37BD465DF8047B54
:100CF800704700BF100000200C6D000880B588B058
:100D080000AF03460A46FB711346BB710123184620
:100D1800012100F0EDFA4FF48040012100F024FB9E
:100D280000233B770023FB770123BB61FB79174A3C
:100D380052F8232007F118031046194600F002FA6A
:100D4800BB79012B1FD1002200231046194600F061
:100D5800CDFB01233B6100233B7508237B750123F1
:100D6800BB7507F11003184600F052F906233B73D0
:100D78000F237B730F23BB730123FB7307F10C0352
:100D8800184600F0E5F82037BD4680BD2000002059
:100D980080B500AF00F004F800F032F8FCE700BFBF
:100DA80080B58CB002AF002387F827300FE097F8A2
:100DB800273097F827200132D2B207F128010B44D7
:100DC80003F8242C97F82730013387F8273097F851
:100DD80027301F2BEBD91223009305200021032273
:100DE8002023FFF73DFAFFF743FB0120FFF768FFD9
:100DF80000200021FFF782FF2837BD4680BD00BFD5
:100E080080B500AF094B012283F83C2000BF074B97
:100E180093F83C30012BFAD0044B1B7F1A46044B45
:100E28009B5C1846FFF74CFF80BD00BF00090020FF
:100E38002400002080B584B000AF7860144B1B6894
:100E4800002B02D1124B134A1A60114B1B68FB602E
:100E58007B68033323F003037B600D4B1A687B68C0
:100E680013440D4A934207D900F082FC02460C2332
:100E780013604FF0FF3306E0054B1A687B68134494
:100E8800034A1360FB6818461037BD4680BD00BF93
:100E9800C40800204409002000FC012080B584B06B
:100EA80000AFF860B9607A60FB68012B05D1B868BB
:100EB800796800F009F8034601E04FF0FF3318465F
:100EC8001037BD4680BD00BF80B485B000AF7860E4
:100ED80039601C4B1B68002B02D11A4B01221A6087
:100EE8000023FB6023E0184B1B6803F00103002B71
:100EF80001D1FB6820E0154B1B6803F00103002BB0
:100F080001D1FB6818E000BF4FF060431B78DBB2EB
:100F1800DBB203F00103002BF6D04FF060417B6891
:100F28005A1C7A601B780B70FB680133FB60FA6807
:100F38003B689A42D7DB3B6818461437BD465DF8D4
:100F4800047B7047C8080020800E00E0000E00E017
:100F580080B485B000AF78600023FB730023BB73B7
:100F68000F237B737B68DB78002B38D0264BDB683C
:100F7800DB4303F4E0631B0AFB73FB7BC3F104034D
:100F8800BB737A7BFB7B42FA03F37B737B685B78EA
:100F98001A46BB7B02FA03F3FB737B689A787B7B68
:100FA8001340DAB2FB7B1343FB73FB7B1B01FB7320
:100FB800164A7B681B781344FA7B83F80023134A8C
:100FC8007B681B785B09DBB218467B681B7803F0EB
:100FD8001F03012101FA03F342F820300FE00B4907
:100FE8007B681B785B09DBB218467B681B7803F0CB
:100FF8001F0301229A4000F1200341F823201437EF
:10100800BD465DF8047B704700ED00E000E100E0BC
:1010180080B485B000AF78600023FB60344BFB6080
:101028007B689B79002B4FD03149314B1A687B681C
:101038001B68DB4313400B602D492D4B5A687B68B6
:101048001B68DB4313404B607B681B791A46FB68BF
:101058001344FB60FB68FA6811687A6812680A43EF
:101068001A602349224B9A687B681B68DB4313404C
:101078008B601F491E4BDA687B681B68DB43134093
:10108800CB607B685B79102B0ED11949184B9A6895
:101098007B681B6813438B601549154BDA687B68BE
:1010A8001B681343CB601DE0114BFB607B685B79C9
:1010B8001A46FB681344FB60FB68FA6811687A6893
:1010C80012680A431A600DE07B681B791A46FB68B0
:1010D8001344FB60FB68FA6811687A681268D243A7
:1010E8000A401A601437BD465DF8047B704700BF9C
:1010F800003C014080B485B000AF78600023FB73EA
:10110800084B5A697B681340002B02D00123FB73FC
:1011180001E00023FB73FB7B18461437BD465DF8DE
:10112800047B7047003C014080B483B000AF786016
:10113800034A7B6853610C37BD465DF8047B7047F2
:10114800003C014080B487B000AF7860396000236C
:101158007B6100233B610023FB6000237B6176E019
:101168007B69012202FA03F33B613B681A683B6919
:101178001340FB60FA683B699A4265D17B681A683C
:101188007B695B00194603238B40DB431A407B686D
:101198001A607B681A683B681B7919467B695B0093
:1011A80001FA03F31A437B681A603B681B79012B29
:1011B80003D03B681B79022B2ED17B689A687B6928
:1011C8005B00194603238B40DB431A407B689A6017
:1011D8007B689A683B685B7919467B695B0001FA12
:1011E80003F31A437B689A607B685A687B699BB2F1
:1011F800194601238B40DB431A407B685A607B68A1
:101208005B683A68927911467A6992B201FA02F2F9
:1012180092B21A437B685A607B68DA687B699BB232
:101228005B00032101FA03F3DB431A407B68DA60B1
:101238007B68DA683B68DB7919467B695B0001FAF1
:1012480003F31A437B68DA607B6901337B617B694E
:101258000F2B85D91C37BD465DF8047B704700BF4E
:1012680080B485B000AF78600B467B8013467B70F6
:101278000023FB600023BB607B787A8802F00702BA
:1012880092009340FB607B88DB089BB218467B8802
:10129800DB089BB21A467B68083253F822207B8809
:1012A80003F007039B0019460F238B40DB4302EA38
:1012B80003017B6800F1080243F822107B88DB08F1
:1012C8009BB21A467B68083253F82220FB68134306
:1012D800BB607B88DB089BB21A467B680832B9681A
:1012E80043F822101437BD465DF8047B704700BFF1
:1012F80080B483B000AF78600B46FB70FB78002B9E
:1013080006D00949084B1A6B7B6813430B6306E048
:101318000549054B1A6B7B68DB4313400B630C379D
:10132800BD465DF8047B70470038024080B483B046
:1013380000AF78600B46FB70FB78002B06D009499C
:10134800084B1A6C7B6813430B6406E00549054B90
:101358001A6C7B68DB4313400B640C37BD465DF8A1
:10136800047B70470038024080B483B000AF7860D7
:101378000B46FB70FB78002B06D00949084B5A6CCA
:101388007B6813434B6406E00549054B5A6C7B6840
:10139800DB4313404B640C37BD465DF8047B704754
:1013A8000038024080B485B000AF7860396000230F
:1013B800FB817B681B88FB81FB8903F44153FB811C
:1013C8003B681A883B685B8813439AB23B689B88E2
:1013D80013439AB23B68DB8813439AB23B681B8974
:1013E80013439AB23B685B8913439AB23B689B8963
:1013F80013439AB23B68DB8913439AB2FB891343C0
:10140800FB817B68FA891A807B689B8B9BB223F4EB
:1014180000639AB27B689A833B681A8A7B681A824F
:101428001437BD465DF8047B704700BF80B483B0B5
:1014380000AF78607B6800221A807B6800225A809F
:101448007B6800229A807B680022DA807B68002211
:101458001A817B6800225A817B6800229A817B6806
:101468000022DA817B6807221A820C37BD465DF8B4
:10147800047B704780B483B000AF78600B46FB7084
:10148800FB78002B08D07B681B889BB243F0400395
:101498009AB27B681A8007E07B681B889BB223F0AE
:1014A80040039AB27B681A800C37BD465DF8047B0E
:1014B800704700BF80B485B000AF78600B467B8072
:1014C8000023FB737B681B899AB27B8813409BB20D
:1014D800002B02D00123FB7301E00023FB73FB7B8D
:1014E80018461437BD465DF8047B704790B484B045
:1014F80000AF03460A46FB711346BB710023FB602D
:10150800BB7903F003039B000F2202FA03F3FB608D
:101518001649BB799B08DBB21846144ABB799B086D
:10152800DBB2023352F82320FB68DB431A40831CEA
:1015380041F823200D48BB799B08DBB21C460B4AB7
:10154800BB799B08DBB2023352F82320F979BB79C7
:1015580003F003039B0001FA03F31A43A31C40F8AA
:1015680023201037BD4690BC704700BF00380140AB
:1015780080B582B000AF154A154BD31A9B103B605B
:1015880000237B6007E0124A7B6852F823309847B3
:101598007B6801337B607A683B689A42F3D30D4AD3
:1015A8000D4BD31A9B103B6000237B6007E00A4A6F
:1015B8007B6852F8233098477B6801337B607A68F0
:1015C8003B689A42F3D30837BD4680BD68020008DD
:1015D80064020008680200086802000880B582B04A
:1015E80000AF0B4A0B4BD31A9B103B603B687B60E8
:1015F80008E07B68013B074A52F8233098477B682C
:10160800013B7B607B68002BF3D10837BD4680BD6A
:10161800680200086802000880B483B000AF7860F0
:10162800FEE700BF80B500AF114A114B1B6843F0BD
:10163800010313600E4B00229A600D4A0C4B1B6885
:1016480023F0847323F480331360094B094A5A60EA
:10165800074A074B1B6823F480231360044B0022BE
:10166800DA6000F00BF8044B4FF000629A6080BD1E
:10167800003802401030002400ED00E080B483B050
:1016880000AF00237B6000233B60354A344B1B6866
:1016980043F480331360324B1B6803F400333B6020
:1016A8007B6801337B603B68002B03D17B68B3F513
:1016B800A04FF0D12A4B1B6803F40033002B02D053
:1016C80001233B6001E000233B603B68012B42D1D2
:1016D800234A234B1B6C43F080531364214A214B4C
:1016E8001B6843F4404313601D4A1D4B9B6893607D
:1016F8001B4A1B4B9B6843F400439360184A184BE2
:101708009B6843F4A0539360154B174A5A60144AD8
:10171800134B1B6843F08073136000BF104B1B68AA
:1017280003F00073002BF9D0104B40F205721A60D9
:101738000B4A0B4B9B6823F003039360084A084B42
:101748009B6843F00203936000BF054B9B6803F05E
:101758000C03082BF9D10C37BD465DF8047B7047A4
:10176800003802400070004008544007003C024026
:10177800014B1868704700BF500400200FB400B533
:10178800074983B004AB086853F8042B81680193B8
:1017980000F008F803B05DF804EB04B0704700BF30
:1017A800500400202DE9F04FBFB01C46894608922E
:1017B800074602F00FFD03681593184603F0B6FCC0
:1017C8000C9416901FB1BB6B002B00F0F380B9F896
:1017D8000C2093B29D040AD4D9F8641042F4005343
:1017E80021F40051A9F80C30C9F864109BB218070D
:1017F80040F1AA80D9F81020002A00F0A58003F053
:101808001A030A2B00F0AC8000231A461193239385
:1018180022931493179309932EAB9C46219312920B
:1018280013926446B846089D2B78002B00F0C680BA
:10183800252B02D1C2E0252B03D015F8013F002B40
:10184800F9D1089BEE1A7EB1229B239A0899216050
:1018580001333244072B66602392229300F393806E
:101868000834099B334409932B78002B00F09380AC
:101878000023691C4FF0FF3A6D788DF867301A46DF
:101888000A93069356464B1CA5F12001582900F2ED
:10189800C183DFE811F05602BF03BF03F602BF039E
:1018A800BF03BF03BF03BF03BF03FD02C602BF03DD
:1018B800F2014703BF03CA02D102D102D102D10209
:1018C800D102D102D102D102D102BF03BF03BF03AB
:1018D800BF03BF03BF03BF03BF03BF03BF036B0245
:1018E8008D02BF038D02BF03BF03BF03BF03BF0247
:1018F800BF03BF036203BF03BF03BF03BF03BF032D
:10190800A903BF03BF037F03BF03BF03BF03BF0315
:10191800BF03BF03BF03BF03BF03BF0394030B038E
:101928008D028D028D0224030B03BF03BF032B031B
:10193800BF033503F901E0025D02BF030B02BF03D9
:101948009500BF03BF0330023846494601F05AF9F3
:10195800A0B9B9F80C3003F01A030A2B7FF454AF7E
:10196800B9F90E30002BFFF64FAF38464946089AB2
:10197800234601F00BF93FB0BDE8F08F4FF0FF3080
:101988003FB0BDE8F08F4046494621AA03F038FC35
:1019980040B92EAC65E7239B23B14046494621AAAE
:1019A80003F02EFCB9F80C305A06E7D409983FB07A
:1019B800BDE8F08F384602F0A9FA08E7089D53E71A
:1019C8000893069BB2469E0640F118830C9F073782
:1019D80027F0070303F10802D3E900670C920123FB
:1019E8004FF0000C8DF867C0CDF83CA0BAF1000F9D
:1019F80003DB069A22F08002069256EA070240F0BC
:101A08001983BAF1000F00F01684012B00F01A8335
:101A1800022B00F04C842EA9F20842EA4772F8081B
:101A280006F0070307461646303356EA070201F860
:101A3800013DF1D1069A0E91D00700F10D852EAB2C
:101A48005B1A0B930B9A92455346B8BF13460793FC
:101A580000231093BCF1000F02D0079B01330793BA
:101A6800069B13F002030D9302D0079B02330793E2
:101A7800069B13F0840640F0DA820A9B079AC2EBB1
:101A8800030ABAF1000F40F3D282BAF1100F23997A
:101A9800229AB34FC8BF4FF0100B07DC1EE0AAF123
:101AA800100ABAF1100F04F1080417DD01321031E1
:101AB800072A2391229284E88008F0DD40464946AF
:101AC80021AA03F09DFB00287FF46CAFAAF1100A4D
:101AD800BAF1100F2399229A2EACE7DC01320AEBF7
:101AE800010B072ACDF88CB0229284E8800400F319
:101AF80043849DF867C00834BCF1000F0FD0229BC7
:101B080001330BF1010B0DF167010122072BCDF811
:101B18008CB0229384E8060000F3B78308340D9B49
:101B280073B1229B01330BF1020B1AA90222072B76
:101B3800CDF88CB0229384E8060000F39A83083429
:101B4800802E00F0EA820F9B0B9AC2EB030ABAF1CF
:101B5800000F32DDBAF1100F229A824F22DD1026D3
:101B68005B4606E0AAF1100ABAF1100F04F1080466
:101B780017DD01321033072A23932292276066600B
:101B8800F0DD4046494621AA03F03AFB00287FF4DD
:101B980009AFAAF1100ABAF1100F239B229A2EACB2
:101BA800E7DC9B460132D344072ACDF88CB0229259
:101BB80084E8800400F351830834069BDB0500F1B8
:101BC8005582229B0B990E9A226001338B44072B76
:101BD800CDF88CB06160229300F317830834069B1C
:101BE80059073AD50A9B079A9D1A002D35DD102D05
:101BF800229B5B4F1EDD10265A4604E0103D102D37
:101C080004F1080415DD01331032072B23922293C7
:101C180027606660F2DD4046494621AA03F0F0FAE3
:101C280000287FF4BFAE103D102D239A229B2EACC6
:101C3800E9DC93460133AB44072BCDF88CB02293F3
:101C48002760656009DD4046494621AA03F0D8FAB5
:101C580000287FF4A7AEDDF88CB0099B079A0A9993
:101C68008A42ACBF9B185B180993BBF1000F40F088
:101C7800D882002322932EACD5E5194606981D7804
:101C880040F004000690FEE50893069B13F020033D
:101C9800B24600F06D810C9F073727F0070303F168
:101CA8000802D3E900670C92002399E60C9A08937E
:101CB80013680E934FF0000B8DF867B0171D002BBB
:101CC80000F04F86002E0E98C0F201865946324623
:101CD80002F082FD002800F080860E9BCDF83CB013
:101CE800C31A0B930C9723EAE3730793CDF840B01C
:101CF8009DF867C0AEE608931B4B1493069B8DF8BE
:101D080067209906B24640F14F810C9F073727F0AC
:101D18000703D3E9006703F108020C92069BDB076F
:101D280040F1DE8256EA070300F0DA82069A8DF85F
:101D38006950302342F002028DF86830069202237F
:101D48004EE61D781946002A7FF49DAD20229AE5BB
:101D5800069941F0200106911D78194693E500BFC8
:101D68007C6D0008286D00085C6D00080893069BD0
:101D78008DF8672043F010030693069B9906B24638
:101D880040F19C800C9F073727F00707D7E900230D
:101D980007F108010C9116461F46002A73F100034B
:101DA800C0F215849DF867C0CDF83CA001231DE65C
:101DB8000C9F0893073727F007038DF8672003F176
:101DC80008020C921A6812925B681393139912987E
:101DD80003F02CF90128B3461298139940F00684B1
:101DE8000022002304F0FCFB002840F0EE859DF85B
:101DF80067C0069E994A9A4B0321002026F0800668
:101E0800472DD8BF1A4607910F9006960E920B9150
:101E180010901FE6069941F0080106911D781946B1
:101E280031E51D7819462B222DE5069941F08001F0
:101E380006911D78194626E5A5F13000002113F812
:101E4800015B01EB810100EB4101A5F1300009289C
:101E5800F5D90A9118E50C9908933023069A8DF85C
:101E680068300B460433782542F002020C937D4B10
:101E78001493B24606920E688DF869500027022323
:101E8800AEE5069941F0010106911D781946FAE47C
:101E98000C9D29680A9108460028294601F1040189
:101EA800C0F2E3840C911D781946ECE40893069B74
:101EB8008DF867209906B2463FF564AF069BDA06AF
:101EC80000F19282069B5B0640F18E820C99B1F973
:101ED80000600431F71732463B460C915DE70699DE
:101EE80041F0400106911D781946CCE41D78069909
:101EF8006C2D00F0B38441F0100106911946C2E43C
:101F08000893069B8DF867209A0640F100840C9A86
:101F180009991368CF170846043239460C92C3E969
:101F2800000180E41D782A2D03F1010100F00E86DE
:101F3800A5F1300009280B464FF000063FF6A4AC87
:101F480013F8015B06EB860600EB4606A5F13000A8
:101F58000928F5D946EAE67696E40893069B43F005
:101F680010030693069B13F02003B2467FF493AE4A
:101F7800069A12F0100240F04082069B13F04003CC
:101F880000F03B820C9913460A4604320E880C92E4
:101F9800002725E50893344B1493069B8DF867209A
:101FA8009906B2463FF5B1AE069BDA0640F1C68304
:101FB8000C9A1346043316680C930027AEE60C9966
:101FC80008930A688DF890200023012204319C466A
:101FD80007920C918DF8673024ABCDF83CC0CDF852
:101FE80040C00B920E933BE50893069B43F0100309
:101FF8000693069BB2469E063FF5E8AC069BD806BC
:1020080040F177830C9A134604321E680C92012320
:102018000027E5E408938DF86720002D3FF4BBAC5A
:10202800002301229C4607928DF89050D2E7DDF8F4
:102038008CB061E5012B7FF4EBAC002F08BF0A2EB2
:1020480080F0EF810DF1F80B30360BF8416D2EABB7
:10205800CBEB03030B93CDF838B0F3E43C6D0008E9
:10206800386D00085C6D0008486D0008652D40F368
:102078008A80129813990022002304F0A7FA0028F6
:1020880000F03181229BBA4A226001330BF1010B27
:102098000122072BCDF88CB02293626000F367838E
:1020A80008341B9B119A934203DB069BDF077FF5DD
:1020B80096AD229B1699159A226001338B44072B03
:1020C800CDF88CB06160229300F3D6830834119B5D
:1020D8005D1E002D7FF783AD102D229BA54F40F389
:1020E800958110265A4604E00834103D102D40F31F
:1020F8008C8101331032072B23922293276066606C
:10210800F2DD4046494621AA03F07AF800287FF418
:1021180049AC239A229B2EACE7E70A9B079A9E1AA2
:10212800002E7FF710AD102E229A924F1FDD4FF030
:10213800100A5B4604E0103E102E04F1080415DD79
:1021480001321033072A2393229284E88004F2DDB7
:102158004046494621AA03F053F800287FF422ACF0
:10216800103E102E239B229A2EACE9DC9B460132AE
:10217800B344072ACDF88CB022922760666000F33A
:1021880019820834DFE4119B229D012B40F3D4818E
:102198000E9B236001350BF101060123072D2396C1
:1021A8002295636000F3E4810834169A159B236036
:1021B80001351644072D23962295626000F3E481C9
:1021C8000834002312981399002204F0FFF9119B98
:1021D800002840F0E0800E9A013B013501321E4490
:1021E800072D229523962260636000F3B581083499
:1021F800179A6260013506EB020B1DAB072DCDF86F
:102208008CB0229523607FF7E9AC4046494621AA65
:1022180002F0F6FF00287FF4C5ABDDF88CB02EACD9
:10222800DDE44046494621AA02F0EAFF00283FF4CF
:1022380020ADFFF7B7BB002B33D1069BDA0730D5AB
:102248000DF1F80B30230BF8413D2EABCBEB03031C
:102258000B93CDF838B0FFF7F5BB4046494621AAA5
:1022680002F0CEFF00287FF49DABDDF88CB02EACD9
:10227800A3E44046494621AA02F0C2FF00287FF4A1
:1022880091ABDDF88CB02EAC5AE44046494621AA01
:1022980002F0B6FF00287FF485ABDDF88CB02EACD9
:1022A8003DE42EABCDF82CA00E93FFF7CBBB1498D2
:1022B8000DF1B80B330906F00F0143EA07733A0929
:1022C8001E461746435C0BF8013D56EA0703F1D159
:1022D8005A462EAB9B1ACDF838B00B93FFF7B2BB1A
:1022E8000223FFF77DBB1B9D002D40F34C82119A02
:1022F80010998A421346A8BF0B461D460E99002D19
:1023080001EB020A0BDD229B21600133AB44072B52
:10231800CDF88CB06560229300F300830834109BDD
:10232800002DA8BF5B1B002B1D4640F3AF80102D6E
:10233800229B104F40F30F8210265A4604E00834BF
:10234800103D102D40F3068201331032072B2392E3
:10235800229327606660F2DD4046494621AA02F0D2
:102368004FFF00287FF41EAB239A229B2EACE7E791
:10237800786D0008286D00084046494621AA02F0F9
:102388003FFF00287FF40EAB9DF867C0DDF88CB0E6
:102398002EACFFF7B1BB03F1FF3ABAF1000F7FF79C
:1023A80027AFBAF1100F904FC8BF4FF0100B07DCE2
:1023B800F6E00834AAF1100ABAF1100F40F3F080E1
:1023C80001351036072D2396229584E88008F0DD24
:1023D8004046494621AA02F013FF00287FF4E2AAEA
:1023E800239E229D2EACE5E70C9A1668134604330B
:1023F800F7170C9332463B46CFE40C990A46043251
:102408000E680C920027FFF7EBBA93460133AB44F2
:10241800072BCDF88CB02293276065607FF7DEAB81
:10242800F3E60DF1B80BCDF81CC0304639460A2248
:10243800002304F025F93032304639460BF8012DD7
:1024480000230A2204F01CF906460F4656EA070341
:10245800EBD1DDF81CC03BE7302B00F019820E9B56
:10246800013B1A462EA80E93821A30230B9201F8CC
:10247800013CFFF7E7BA4046494621AA02F0C0FEF0
:1024880000287FF48FAADDF88CB02EAC0E9A109934
:102498001B9B0A441646119A93423EDB069AD507BF
:1024A8003BD4119AC6EB0A05D31A9D42A8BF1D4614
:1024B800002D2F460BDD229A26600132AB44072AF5
:1024C800CDF88CB06560229200F35E820834002F4C
:1024D800ACBFDD1B1D46002D7FF781AB102D229B65
:1024E800414F93DD10265A4603E00834103D102D65
:1024F8008BDD01331032072B23922293276066600D
:10250800F3DD4046494621AA02F07AFE00287FF40E
:1025180049AA239A229B2EACE8E7229A1698159985
:10252800216001328344072ACDF88CB06060229282
:1025380000F30A820834B4E7069BD8073FF528AEB3
:102548000E9B236001350BF101060123072D23960D
:10255800229563607FF74BAE4046494621AA02F0B8
:102568004FFE00287FF41EAA239E229D2EAC3FE634
:102578004046494621AA02F043FE00287FF412AAE9
:10258800239E229D2EAC10E64046494621AA02F021
:1025980037FE00287FF406AA239E229D2EAC10E663
:1025A80001355644072D2396229584E880047FF749
:1025B8001EAED1E74046494621AA02F021FE002876
:1025C8007FF4F0A9DDF88CB02EACFFF7BCBA4FF061
:1025D8002D0C764267EB47078DF867C0CDF83CA015
:1025E8000123FFF703BA00BF286D000802F01EFDA3
:1025F800002800F00D8125F02003B6F1FF3F0B9372
:1026080000F05882472B04D1002E14BFB3464FF078
:10261800010B069B43F480730F93139BB3F1000ADD
:10262800129B0793BBBF534603F1004A00232D2397
:10263800662D0D9300F05481462D00F051810B9BBF
:10264800079A452B0CBF0BF101075F4602201BA917
:102658008DE8810002911CA81FA90390534604919C
:10266800404600F0C9FB672D0E9002D0472D40F080
:102678004781069BDB0740F13A820E9BDE190798DB
:1026880051460022002303F0A1FF002840F0A38157
:102698001F9B9E4206D930215A1C1F9219701F9BFE
:1026A8009E42F9D80E9A9B1A11930B9B472B1B9BA2
:1026B80000F07981652D40F39C81662D109300F020
:1026C8000982119B109A934200F3F781069BD90760
:1026D80000F1178222EAE2730B920D9A002A40F069
:1026E800698107930F9B06930F929DF867C0FFF7C8
:1026F800B1B9069B0C9A13F0400F13463FF484AC13
:1027080016880432002701230C92FFF769B9069B4B
:10271800DB060BD4069B5F0608D50C9A13680432B7
:102728000C92BDF824201A80FFF77DB80C9A136824
:1027380004320C92099A1A60FFF775B8069B0C9A36
:1027480013F0400F134676D0043316880C930027F5
:10275800FFF7E4BA93460133AB44072BCDF88CB0AE
:102768002293276065603FF786AE08348EE64046C0
:10277800494621AA02F044FD00287FF413A9DDF898
:102788008CB02EAC8DE4229BB04A226001330BF151
:10279800010B0122072BCDF88CB02293626050DC2C
:1027A80008342DB9119B1BB9069BDE077FF517AAC4
:1027B800229B1699159A226001330BEB0102072B15
:1027C80023926160229300F3688108346D42002DE2
:1027D8006FDD102D9E4FC8BF102605DCAAE0083417
:1027E800103D102D40F3A68001331032072B2392A1
:1027F800229327606660F2DD4046494621AA02F02E
:10280800FFFC00287FF4CEA8239A229B2EACE7E792
:10281800069E904A904B9DF867C00F90032126F0C2
:102828008006472DD8BF1A460791069610900E923B
:102838000B91FFF70FB9043316680C930027FFF7C5
:102848006DBA4046494621AA02F0DAFC00287FF416
:10285800A9A81B9DDDF88CB02EACA2E741F02001A1
:1028680006915D78591CFFF70EB80A980C91404202
:102878000A901946FFF702BA4046494621AA02F0D3
:10288800BFFC00287FF48EA8DDF88CB02EAC1EE4C7
:102898000E9A2EAB9B1A0B93FFF7D4B840464946C5
:1028A80021AA02F0ADFC00287FF47CA8239A229B81
:1028B8002EAC11986060013302EB000B072B0E9AC7
:1028C800CDF88CB0229322607FF788A99DE4CDF8DB
:1028D8003CB002F02BFC0C970B900346FFF703BAB1
:1028E80003201BA98DE8010802911CA81FA90390C9
:1028F800079A04915346404600F07EFA5F460E90D0
:102908000E9BDE190B9B462B7FF4B9AE0E9B1B78F2
:10291800302B00F0FC801B9F3E44B0E64046494601
:1029280021AA02F06DFC00287FF43CA8DDF88CB0E9
:102938002EACF4E401332A44072B23922293276018
:102948006560ABDC0834B4E74046494621AA02F08A
:1029580057FC00287FF426A81B9BDDF88CB02EAC12
:102968009FE5062E334628BF06230B9323EAE3731D
:10297800DDF838C00793394B0C97CDF83CC0CDF83B
:1029880040C00E93FFF766B84046494621AA02F0B8
:1029980037FC00287FF406A81B9B119ADDF88CB041
:1029A800D31A2EAC93E5DF1C22DB9B4520DB10936A
:1029B800672586E607930F9B06934FF02D0C00239F
:1029C8008DF867C00F93FFF748B84FF02D0C8DF8BE
:1029D80067C0FFF70EBA334664E626EAE6730F903F
:1029E8000C9710909DF867C007930B96FFF732B8C5
:1029F800023D013B002B1B93BABF5B422D222B22C9
:102A0800092B8DF874508DF8752072DD0DF1830651
:102A18003046134A82FB0321DA17C2EBA10202EB0C
:102A28008201A3EB410303F13001092A134600F8A0
:102A3800011DEEDC02463033D9B202F8011D964280
:102A480040F2A0800DF1760203460DE0786D000893
:102A5800286D0008446D0008406D0008706D00087E
:102A68006766666613F8011B02F8011BB342F9D1C9
:102A780021AB1B1A0DF1760213441DAA9B1A119A59
:102A88001793012A13440B936DDD0B9B002201332E
:102A98000B93109223EAE3731FE64046494621AAA6
:102AA80002F0AEFB00287EF47DAF1B9D239A229B8B
:102AB8002EAC8BE64FF0060BABE5109B002BD8BF76
:102AC800C3F10206119BC8BF0126F3180B9323EA32
:102AD800E37302E6002B30DDBBF1000F25D1069B26
:102AE800DE0722D4109A0B9222EAE273F5E51F9BC7
:102AF800D8E5303330228DF877308DF876201EAB4C
:102B0800BBE7109B01330B9323EAE373E5E50798D2
:102B180051460022002303F059FD00287FF4FBAE44
:102B2800C7F101071B973E44A9E5109B0BF101066D
:102B380033440B9323EAE373CFE5BBF1000F1BD1BA
:102B4800069BD80718D401230B93C6E50C9D2E6865
:102B580028460430002E5D780C90BEF694AE4FF0F7
:102B6800FF36FEF790BE069B13F001038DD110933C
:102B78000B9B23EAE373B0E50BF102030B9323EA03
:102B8800E373AAE50DF1760377E700BF2DE9F0427C
:102B98000C46ADF58D6DB1F80CE0E769496EB4F8F7
:102BA8000E9019911AAD4FF480662EF0020E4FF078
:102BB800000C07976946676A009504950296059682
:102BC800ADF80CE0ADF80E900997CDF818C00646A0
:102BD800FEF7E8FD051E07DB3046694601F002F9FD
:102BE800002818BF4FF0FF35BDF80C305B0603D541
:102BF800A38943F04003A38128460DF58D6DBDE8F8
:102C0800F08200BF38B52F4B1B6805460C4613B140
:102C18009A6B002A36D0A28993B218070CD520697E
:102C2800A8B113F001021ED0636900225B42A361C0
:102C3800A260F0B1002038BDD9063BD5580725D48D
:102C4800206942F00803A3819BB20028E9D103F46C
:102C58002072B2F5007FE4D02846214601F0BEFA82
:102C6800A3892069DDE7990758BF6269A260002837
:102C7800E0D1A3891A06DED543F04003A3814FF0C3
:102C8800FF3038BD184601F041F9C4E7216B49B15E
:102C980004F14003994203D0284601F08FF9A28934
:102CA8000023236322F0240200232069636092B288
:102CB8002060C6E742F0400209232B604FF0FF3046
:102CC800A28138BD5004002002690B69934200F3C9
:102CD8008F802DE9F04F03F1FF3801F1140700F15F
:102CE800140B57F828205BF828304FEA880483B083
:102CF8000132B3FBF2F90BEB0403009407EB040A6F
:102D08000193B9F1000F3BD000263246BC46DE469F
:102D180034465CF8046BDEF80050B3B2360C03FBA3
:102D2800094406FB09F606EB1446A3B2D31AB4B25B
:102D380013FA85F3C4EB154404EB23449BB243EA2E
:102D48000443E2454FEA24424EF8043B4FEA164456
:102D5800DFD2009B5BF8033093B9019C231F9B458E
:102D68000CD254F8043C4BB9A4F1080302E01A68E9
:102D7800043B1AB99B4508F1FF38F8D3C0F8108016
:102D8800044602F069F800282EDB09F101095D46C6
:102D9800002357F8041B28688AB29A1A090C12FAF9
:102DA80080F2C1EB104303EB224391B241EA0341A5
:102DB800BA4545F8041B4FEA2343EAD25BF82820BA
:102DC8000BEB880382B91A1F93450BD253F8042CD6
:102DD80042B9083B02E01A68043B1AB99B4508F15E
:102DE800FF38F8D3C4F81080484603B0BDE8F08F28
:102DF80000207047000000002DE9F04F016C97B0EB
:102E08000446239DCDE9022341B1426C4A60012367
:102E180093408B6001F03CFE00232364DDE902232C
:102E2800002B994636DB00232B60A54B1A4609EA8E
:102E38000303934217D0DDE9026700223046394682
:102E4800002303F0C3FB804600282BD0229A0123DD
:102E58001360249B002B00F0CB809A48186001383F
:102E680017B0BDE8F08F229A42F20F731360029BED
:102E7800002B00F0A6809448249B002BF0D0C37848
:102E8800002B00F0B78000F10803249A136017B0F4
:102E9800BDE8F08F039A012322F000492B60CDF89A
:102EA8000C90C2E715AA14AB8DE80C0020463246F8
:102EB8003B4602F05FF85FEA1955834640F08A8086
:102EC800DDF85080159D6FF4826345449D42C0F241
:102ED80097827E4A521B09FA02F9029A05F21243B6
:102EE80022FA03F049EA000003F092F80123013DB9
:102EF800A1F1F8710D930022754B02F04BFF6AA304
:102F0800D3E9002303F0FAF869A3D3E9002302F018
:102F180043FF064628460F4603F08AF866A3D3E91E
:102F2800002303F0EBF802460B463046394602F020
:102F380033FF06460F4603F07BFB39460490002218
:102F48003046002303F04CFB002840F0A681049B88
:102F5800162B00F29F81049A5E4B03EBC203D3E960
:102F68000001DDE9022303F059FB002800F04E823E
:102F7800049B013B049300230B93C5EB0805B5F1B3
:102F8800010A00F1A18100230593049B002BC0F2E4
:102F980092819A440A9300230893209B092B2BD8EB
:102FA800052B40F37086043B20930025209B023BB1
:102FB800032B00F24E86DFE813F0CC03BE03B20207
:102FC8006306414B444AC9F31300002814BF18464E
:102FD800104651E7C7F3130343F07F51CDF834800F
:102FE8003046A5F2FF3541F44011DDF8508082E704
:102FF8003A4835E7C31C48E7002161642046209120
:1030080001F020FD4FF0FF330693209A0C93012323
:103018000790219220640993159B002BC0F2D2805F
:10302800049A0E2A00F3CE802A4B03EBC203D3E99D
:103038000089219B002BC0F28F83DDE9026742469D
:103048004B463046394603F083F903F0F1FA8246DD
:1030580002F0EEFF42464B4603F050F80B4602469C
:103068003946304602F096FE079D0AF130032B7070
:10307800069B012B06460F4605F1010562D000228A
:10308800174B03F03BF80022002306460F4603F0D7
:103098009DFA002840F08380CDF808B00594DDF84B
:1030A8001CB0069C29E000BF61436F63A787D23F2D
:1030B800B3C8608B288AC63FFB799F501344D33F1F
:1030C8000000F07F796D0008986D00080EFCFFFF86
:1030D8000000F83FA86D00088C6D0008786D0008A6
:1030E8000000244003F00AF80022002306460F4699
:1030F80003F06CFA002840F0DE8342464B46304627
:10310800394603F025F903F093FA824602F090FF5E
:1031180042464B4602F0F2FF02460B46304639461D
:1031280002F038FE0AF1300E05F801EBCBEB050E84
:10313800744506460F464FF00002B54BD2D1DDF874
:1031480008B0059C32463B463046394602F024FE1C
:1031580006460F464046494632463B4603F040FA8B
:1031680048B94046494632463B4603F02FFAB0B1CB
:103178001AF0010F13D015F8018C07996B1E04E0A3
:103188008B4200F0408413F8018DB8F1390F03F138
:1031980001051A46F4D008F10103DBB2137020468A
:1031A800594601F075FC0022049B2A70229A0133CB
:1031B8001360249B002B00F0458307981D6017B00F
:1031C800BDE8F08F099A002A00F08480209A012A2D
:1031D80040F30483069B5F1E089BBB42C0F2A98391
:1031E800DF1B069B002BC0F29C84059D069B059A5D
:1031F80020461A44012105929A4401F0E3FC064650
:1032080065B1BAF1000F09DDAA45059A5346A8BF72
:103218002B46D21A0592ED1AC3EB0A0A089B002B1B
:103228001ADD099B002B00F07D83002F10DD31464D
:103238003A46204601F06AFD06465A46314620467F
:1032480001F0CAFC59468046204601F021FCC346DD
:10325800089BDA1B40F0A2822046012101F0B2FC53
:103268000A9B002B804639DD01461A46204601F0AC
:103278004DFD209B012B804640F396824FF00009BC
:10328800D8F8103008EB8303186901F04DFCC0F141
:1032980020002DE001230B936FE6049802F0C8FE8E
:1032A80032463B4603F092F900287FF450AE049B67
:1032B800013B04934BE6059A049BD21A5B420893A0
:1032C800002305920A9368E6CAF1000305934FF0BC
:1032D800000A5AE6089F059D099E91E7209B012B4D
:1032E80040F3B3824FF000090A9B002BC8D101209C
:1032F800504410F01F0000F08180C0F12003042B1F
:1033080040F3B884C0F11C00059B034405930544B1
:103318008244059B002B05DD59461A46204601F0DC
:1033280045FD8346BAF1000F05DD41465246204669
:1033380001F03CFD80460B9B002B40F06882069B09
:10334800002B40F39582099B002B71D1DDF81C906E
:10335800069F4D4602E001F0A5FB834641465846CC
:10336800FFF7B2FC00F1300C05F801CBC9EB0503FF
:10337800BB42204659464FF00A024FF00003EADBF1
:10338800079B069A012AACBF9B1801331D464FF0D4
:10339800000A594601222046CDF808C001F006FD72
:1033A8004146834601F058FD0028DDF808C040F387
:1033B800F68215F8012C07996B1E04E08B4200F089
:1033C800738213F8012D392A03F10105F6D0013271
:1033D8001A704146204601F05BFB002E3FF4DFAE39
:1033E800BAF1000F05D0B24503D05146204601F08E
:1033F8004FFB3146204601F04BFBD0E61C2083E70B
:10340800044B029A5B1B02FA03F06DE50B90B4E5DE
:1034180000002440EEFBFFFF3146002320460A222D
:1034280001F040FB0C9B002B064640F30C840693EE
:10343800002D05DD31462A46204601F0B7FC064638
:10344800B9F1000F40F0E982B146069B079A013BAB
:10345800D3180893029B03F00103099317464146CA
:103468005846FFF731FC31460546584601F0F4FC52
:103478004A4682464146204601F012FDC26803468C
:1034880005F1300C002A40F0B88119465846CDF8AD
:1034980018C0059301F0E0FC059B029019462046F0
:1034A80001F0F6FA029ADDF818C02AB9209B1BB978
:1034B800099B002B00F0A783BAF1000FC0F25182DC
:1034C80005D1209B1BB9099B002B00F04A82002ADA
:1034D80000F3B782089B87F800C007F1010A9F42F2
:1034E800554600F0BA8259460A220023204601F0C8
:1034F800D9FA4E458346314620464FF00A024FF02E
:10350800000300F0748101F0CDFA494606460A220C
:103518002046002301F0C6FA574681469FE701235B
:103528000993219B002B40F313821F461E460C93E0
:1035380006930021172F61640AD9012204235B0036
:1035480003F114008742114602F10102F7D26164C7
:10355800204601F077FA0E2E079020643FF65CAD06
:10356800002D3FF459ADDDE9022304990029CDE986
:103578000E2340F32182B74B01F00F020D1103EB2C
:10358800C203E906D3E9006740F1DB81B24BDDE90C
:103598000E01D3E9082302F0DBFECDE9020105F0B4
:1035A8000F054FF003088DB1DFF8AC92304639466D
:1035B800EA0705D5D9E9002308F1010802F09EFDC4
:1035C8006D1009F10809F3D106460F46DDE902013D
:1035D80032463B4602F0BCFECDE902010B9B43B1EB
:1035E800DDE9020100229D4B02F0FAFF002840F0BD
:1035F800AC82404602F01CFDDDE9022302F07EFDAC
:10360800974B002202F0C8FB069B0646A1F15077B3
:10361800002B00F06281049BDDF818901293099B3F
:10362800002B00F021828B4B8E4903EBC90353E931
:103638000223002002F08CFE32463B4602F0AAFB31
:10364800DDE90267CDE910013946304602F0F0FFA6
:10365800054602F0EDFC303502460B463046394649
:1036680002F098FB5FFA85F8079DDDE9102385F8DD
:10367800008006460F46013502F0B2FF002840F0F0
:10368800B28232463B460020744902F083FB024670
:103698000B46DDE9100102F0C1FF002840F0AC82C2
:1036A800B9F1010F40F33881079BCDF84CA0CDF854
:1036B80008B09944DDE910ABA0460DE00020674949
:1036C80002F068FB52465B4602F08AFF002840F091
:1036D8008E824D4500F01B81504659460022624BB0
:1036E80002F00CFD0022604B82468B46304639467C
:1036F80002F004FD0F46064602F09AFF044602F067
:1037080097FC02460B463046394602F043FB3034FC
:10371800E4B252465B4605F8014B06460F4602F0F6
:103728005FFF32463B460028C8D0129BDDF808B040
:103738000493444633E500230993219B049A1344D8
:103748000C930133002B069340F30981069E3746FC
:10375800EFE600230993E4E6069B002B3FF76DACE8
:1037680040F0628240460022404B494602F0C6FCC7
:10377800DDE9022302F048FFDDF8188046460028FC
:1037880000F08A80219B079DDB4304934146204635
:1037980001F07EF9002E7FF42CAE00E55946204654
:1037A80001F0B4FA834657E5029B002B7FF466AD1F
:1037B800039BC3F31303002B7FF494AD039B23F007
:1037C80000473F0D3F05002F00F01A82059B01338B
:1037D80005930AF1010A4FF0010985E50D9A002ABF
:1037E80000F0A58103F23343089F059DFFE401F033
:1037F80059F957460646814631E601462046CDF836
:1038080008C001F045F90122DDF808C054E6584621
:10381800414601F021FB0028BFF691AD049F5946AF
:10382800002320460A22013F049701F03BF9099B37
:103838008346002B7FF4F0AD0C9B002B40F3F881FE
:10384800069383E50798FFF70BBB029B002B7FF4D9
:1038580049ADADE7A86D0008706E00080000F03FA4
:1038680000001C400000E03F00002440000014401D
:10387800209B022B7FF767AD069B002B82D1414628
:103888000522204601F00EF980464146584601F0CF
:10389800E3FA00287FF776AF049A079931230132BB
:1038A80004920B704D1C71E7049A01320492079A36
:1038B800312313708DE5DDF808B0059C6FE44046B0
:1038C80002F0B6FBDDE9022302F018FC0022BC4B33
:1038D80002F062FA0646A1F15077DDE90201002202
:1038E800B84B02F057FA32463B46CDE9020102F0E6
:1038F80095FE8046002840F0B380324607F1004329
:10390800DDE9020102F06CFE30B146463AE7DDF827
:103918004CA0DDF808B04446DDE90E23CDE90223CA
:10392800FFF77ABB5946089A204601F0EFF983461B
:1039380092E4089B0A9A0897FB1A1A440A920027ED
:103948004FE4DDE90E234FF00208CDE902232AE611
:10395800012621960C96069600216164F8E51E461C
:10396800FAE7002A15DD594601222046CDF808C09D
:1039780001F01CFA4146834601F06EFA0028DDF892
:1039880008C040F34A81BCF1390F00F006810CF100
:10399800010CB24687F800C07D1C4E4619E504D1DB
:1039A8001CF0010F01D004E5154615F8013C302B39
:1039B80005F1FF32F8D00CE5049B5D42002D00F0C4
:1039C800BD80814B05F00F0203EBC203D3E900234E
:1039D800DDE90E0102F092FB2D11CDE9020100F0A4
:1039E8002C817A4E4FF00208EB0705D5D6E9002363
:1039F80008F1010802F082FB6D1006F10806F3D108
:103A0800CDE90201EAE5049A01320492079A3023CB
:103A1800137031231370FFF7C2BB7168204601F0A1
:103A280011F833699A1C0546920006F10C010C3016
:103A380000F01CFF20462946012201F0B7F9814613
:103A480003E5BCF1390F00F0A8800CF1010CB24677
:103A580087F800C07D1C4E46BBE4B2464E4698E44B
:103A68004FF00008464617E7574909F1FF3301EBC5
:103A7800C30132461393D1E900013B4602F03EFBF5
:103A8800DDE90267CDE910013946304602F0D0FD84
:103A9800054602F0CDFA02460B463046394602F09A
:103AA80079F9079A3035B9F1010F157006460F46B6
:103AB80002F1010523D0079BCDF808A04B445E46D0
:103AC8009A46AB460022424B02F018FB89468046D4
:103AD80002F0AEFD074602F0ABFA303702460B465D
:103AE8004046494602F056F90BF8017BD345E9D127
:103AF800139BDDF808A0B3460F4606461D44002276
:103B0800344BDDE9100102F047F932463B4602F03A
:103B180067FD002847D0129B049315F8018CFFF726
:103B28002CBB059B069A9D1A0023FFF760BB149BCC
:103B3800089F059DC3F13603FFF759BBDDE90E2346
:103B48004FF00208CDE9022348E5069B002B3FF41D
:103B5800B6AE0C9D002D7FF7DFAE00221C4BDDE9D1
:103B6800020102F0CBFA06460F4608F10100CDE942
:103B7800026702F05DFA02460B463046394602F00B
:103B8800BDFA0F4B002202F007F9049B013B0646E1
:103B9800A1F150771293A94641E53922B2463A700D
:103BA8004E467D1C07E4DDE910230020094902F098
:103BB800F1F832463B4602F031FD70B9ACE600BF81
:103BC80000001C4000001440A86D0008706E00083A
:103BD800000024400000E03F154615F8013C302B5A
:103BE80005F1FF32F8D0129B0493FFF7D8BA434689
:103BF800DDF808B0A0461C46129B0493FFF7BDBA37
:103C0800B946FFF771BBBCF1390FC6D0BAF1000F46
:103C18007FF7BFAE05F1310CBBE67FF4BAAE1CF0FE
:103C2800010F3FF4B6AEAEE64FF000084646A9E5F0
:103C3800209B022B04DC0C9B02E64FF00208CDE42B
:103C48000C9B069318E6209B022BF9DC0C9BFFF7D4
:103C5800EEBB002565642946204600F0F3FE4FF0D0
:103C6800FF3306930C930123079021952064099351
:103C7800FFF7D2B93FF44DABC0F13C00FFF744BBAE
:103C88000123099359E50125FFF790B9AFF30080A7
:103C98008B899AB22DE9F0410D46110780463CD434
:103CA8006A6843F40063002AAB8165DDAE6A002EC2
:103CB8004BD09BB203F48052002192B2D8F8004056
:103CC800C8F80010002A5BD02A6D5F0705D569681F
:103CD8002B6B521A0BB1EB6BD21A4046E9690023E1
:103CE800B047461C56D0AB892A692A6023F4006382
:103CF8009BB200226A60DA04AB813BD4296BC8F816
:103D0800004011B305F14003994202D0404600F04B
:103D180055F900202863BDE8F0812E69AEB12C6802
:103D28002E6091070CBF6B690023A41BAB600AE0EF
:103D3800324623466F6AE9694046B8470028A4EB33
:103D48000004064404DD002CF2DC0020BDE8F0810C
:103D5800AB8943F04003AB814FF0FF30BDE8F08101
:103D6800AB892A69696023F400639BB2AB81DB04E9
:103D78002A60C3D52865C1E7EA6B002A96DCE4E728
:103D880001234046E969B047431C024619D0AB8974
:103D9800AE6A9AE7D8F800100029E1D01D2907D0AB
:103DA800162905D0AB8943F04003AB81BDE8F0810B
:103DB800AB892A692A6023F400630022AB816A6018
:103DC8009CE7D8F80030002BE1D01D2B07D0162B2C
:103DD80005D0AB8943F04003AB81BDE8F081C8F85A
:103DE8000040B2E710B5044682B008B1836B53B106
:103DF800B1F90C0008B902B010BD204602B0BDE808
:103E08001040FFF745BF019100F080F80199EFE7F6
:103E1800014900F0ABB900BFCD5200082DE9F04FC1
:103E2800354B4568C3630024074600F53B720423FD
:103E38000321C0F8E412C0F8E822C0F8E04283B0D9
:103E48002C606C60AC606C66EC812C616C61AC6160
:103E5800AB81214605F15C00082200F0A1FDBE6897
:103E6800DFF898B0DFF898A0DFF89890DFF898802E
:103E7800C5F820B001230922C5F824A0C5F8289068
:103E8800C5F82C80ED612146F381B28106F15C0012
:103E980034607460B460746634617461B46108221B
:103EA800019300F07DFDFD68F66112200222C6F83C
:103EB80020B0C6F824A0C6F82890C6F82C80214661
:103EC800A881EA812C606C60AC606C662C616C61C6
:103ED800AC6105F15C00082200F062FD019BED6118
:103EE800C5F820B0C5F824A0C5F82890C5F82C80DE
:103EF800BB6303B0BDE8F08F193E0008B15000085D
:103F0800D55000080D5100082D510008836B03B1EE
:103F18007047FFF783BF00BF704700BF704700BFFF
:103F2800F8B5234F0C46064600F088FDBB685D686F
:103F380025F00305291B01F6EF7121F47F6121F0BB
:103F48000F01A1F58054B4F5805F07DB30460021EE
:103F580001F098F8BB682B44984204D0304600F032
:103F68006FFD0020F8BD3046614201F08BF801304A
:103F78000DD0104BBA6819682D1B45F00105304665
:103F8800091B5560196000F05BFD0120F8BD304643
:103F9800002101F077F8BA68831A0F2BDEDD064C92
:103FA8000449246843F00103001B53600860D5E707
:103FB800B0040020D8080020BC08002000294ED0FA
:103FC8002DE9F0410C46804600F038FD54F8047C99
:103FD800624927F00102A4F10805AB188E685868F9
:103FE8009E4220F003005AD0FE0758600BD454F8C4
:103FF800087CED1B01F1080EAC6874453A4467D0A3
:10400800EF68E760BC601C186468E4070CD4544F80
:104018009C68BC4202447CD0D868E06042F001034E
:1040280084606B60AA5003E042F001036B60AA5001
:10403800B2F5007F14D2D20801EBC20348689F682A
:10404800AF609210012404FA02F21043EB6048605A
:104058009D60FD604046BDE8F04100F0F1BC70474E
:10406800530A042B47D8930903F13804600001EB85
:1040780080003A498368834243D0596821F003019C
:10408800914202D99B689842F7D1DA68EA60AB603E
:1040980040469560DD60BDE8F04100F0D1BCFF0707
:1040A800024407D454F8083CED1A1A44A868EB688F
:1040B800C36098602B4B1B6842F001009A4268600D
:1040C8008D60C7D3284B40461968FFF729FFC1E721
:1040D80019184968C90709D4D9689B68024442F08D
:1040E8000100D9608B606860AA50B3E742F0010311
:1040F8006B60AA50AEE7142B14D803F15B04600080
:10410800B5E74A68A4100120A04002434A601A4655
:10411800BCE742F001034D610D61EC60AC606B607F
:10412800AA5097E7542B04D8130B03F16E046000D0
:104138009DE7B3F5AA7F04D8D30B03F17704600099
:1041480095E740F25450834204D8930C03F17C0461
:1041580060008CE7FC207E2489E700BFB0040020C3
:10416800B8040020B8080020D40800202DE9F8433E
:1041780010F538771FD0884606464FF000097D684D
:10418800BC68013D11D4A389012B05F1FF3508D97D
:10419800B4F90E3001332146304602D0C04749EA0F
:1041A80000096B1C04F16804EDD13F68002FE6D1CB
:1041B8004846BDE8F883B9464846BDE8F88300BFDD
:1041C800004870478C040020014B1868704700BFF6
:1041D800AC04002000487047540400208B899AB230
:1041E80012F0020F3CD1F0B50C46B1F90E100029BF
:1041F80091B0054619DB01AA01F008F9002812DB85
:10420800029B03F47043B3F5004FA3F50057B7FAC8
:1042180087F74FEA57172AD0A38943F40063A3818D
:104228004FF480660BE0A3899AB212F0800F43F432
:104238000063A3810CBF4FF4806640260027284600
:10424800314600F03BF8A38940B31A4AEA6343F0C9
:104258008003A3812060206166619FB911B0F0BD21
:1042680001F1430301220B600B614A617047124B55
:10427800A26A9A42D0D1A3894FF480663343A381BE
:10428800E664DCE72846B4F90E1001F05FFA00286E
:10429800E4D0A38943F00103A381DFE79A05DDD4C5
:1042A80004F1430243F002030121A3812260226149
:1042B8006161D3E7193E00080D5100082DE9F04F60
:1042C80001F10B05162D83B0064627D935F00705F1
:1042D80000F1B680A94200F2B38000F0AFFBB5F55B
:1042E800FC7F22D2C24FE80807EBC003DC689C427F
:1042F80000F0C9816368E168A56823F003032344DB
:1043080030465A68E96042F001028D605A6000F058
:1043180097FB0834204603B0BDE8F08F102900F25F
:104328008F8000F08BFB1025DCE7680A00F08F8097
:10433800042800F25481A80938304100AC4F07EB3B
:104348008101CC68A14206D10CE0002A80F282806B
:10435800E468A14206D0636823F003035A1B0F2ABE
:10436800F3DD01380130A2493C6901F1080E7445BA
:1043780000F07E81636823F003035A1B0F2A00F3C1
:104388006481002AC1F814E0C1F810E073DAB3F5CB
:10439800007F80F03981DB0801EBC3084FEAA30CEA
:1043A8004A68D8F80890C4F80890012303FA0CF377
:1043B8001343C4F80C804B60C8F80840C9F80C4097
:1043C8008210012494409C4262D8234206D120F0F6
:1043D80003006400234200F10400FAD007EBC00890
:1043E800C4468146DCF80C309C4507D142E10029DF
:1043F80080F25281DB689C4500F03C815A6822F0CB
:104408000302511B0F29F2DD1C46D3F80CC054F8E7
:10441800088F5A1945F0010941F00105C3F80490C5
:104428003046C8F80CC0CCF808807A613A61C2F806
:104438000CE0C2F808E05560515000F001FB69E754
:1044480000240C232046336003B0BDE8F08F7E21A2
:104458003F2073E72344E1685A68A56842F00102E7
:10446800E96030468D605A6000F0EAFA0834204668
:1044780003B0BDE8F08F234430465A6842F0010289
:104488005A6000F0DDFA0834204603B0BDE8F08F2A
:10449800BC68636823F00308454504D8C5EB0803E6
:1044A8000F2B00F38C80534BDFF858A11A68DAF809
:1044B800003001332A4404EB080B00F0508102F568
:1044C80080520F3222F47F6222F00F0211463046EA
:1044D800019200F0D7FDB0F1FF3F8146019A00F04C
:1044E800F580834500F2EF80434B1968CB451144B2
:1044F800196000F03D81DAF80000DFF808E10130CA
:104508001BBFCBEB090B5944CEF80090196019F08A
:10451800070100F00781C1F10800C1F5805181440D
:1045280008314A44C2F30B02C2EB010A5146304635
:10453800019300F0A7FD431C019B00F02781C9EB04
:104548000002524442F001021968C7F80890514429
:10455800BC42C9F804201960DFF89CA016D0B8F155
:104568000F0F40F2E2806268A8F10C0323F0070302
:10457800E01802F001024FF0050E1A430F2B62609B
:10458800C0F804E0C0F808E000F204811B4BBC68E6
:104598001A68914288BF1960194B1A68914262687B
:1045A80088BF196022F003029542A2EB050301D8E7
:1045B8000F2B04DC304600F043FA0024AAE6621907
:1045C80043F0010345F0010565603046BA60536069
:1045D80000F036FA0834204603B0BDE8F08F1428FE
:1045E80069D9542800F29780280B6E304100A5E65F
:1045F800B0040020D4080020D8080020D0080020EB
:10460800CC080020BC0800205A0A042A56D9142ACB
:1046180000F2A7805B324FEA420C07EB8C0CDFF804
:10462800B481DCF80810614500F085804A6822F002
:104638000302934202D289688C45F7D1CA687B6825
:10464800E260A1609460CC60BAE6631942F00107A9
:1046580045F00105656030464B610B61C3F80CE01D
:10466800C3F808E05F609A50083400F0E9F951E6B1
:104678004B68A5E609F1010919F0030F0CF1080CC4
:104688007FF4B0AE2BE004F108036469A34208BFCD
:1046980002303FF468AE2DE61A441C465168DB68C8
:1046A80054F8085F41F0010151603046EB609D60AD
:1046B80000F0C6F92EE65B3041003FE69A09383231
:1046C8004FEA420CA9E7BC423FF40EAFBC686268EF
:1046D80022F0030268E7D8F80080984577D110F0F7
:1046E800030FA8F1080300F1FF30F4D17B6823EA37
:1046F80004037B6064009C423FF6CAAE002C3FF482
:10470800C7AE234248467FF469AE6400234200F1F5
:104718000400FAD062E6B0F5AA7F18D8E80B773023
:1047280041000BE64FF48051FBE60123C9F8043041
:104738004C46002238E7D8F8043092104FF0010CAC
:104748000CFA02F21343C8F804300A4678E740F23C
:104758005453984217D8A80C7C304100EEE510322B
:10476800B4E6542A1ED81A0B6E324FEA420C54E7AC
:10477800CBF30B0000287FF4BEAE4244BB6842F086
:1047880001025A6002E7FC217E20D7E501224FF0A2
:10479800000AD9E604F108013046FFF70FFCDAF801
:1047A8000010F3E6B2F5AA7F04D8DA0B77324FEAA5
:1047B800420C32E740F254518A4204D89A0C7C32B7
:1047C8004FEA420C29E74FF0FC0C7E2225E77B6874
:1047D80090E700BFB0040020830770B4C9B240D08E
:1047E800541E002A3FD003788B4218BF431C06D1C1
:1047F8001DE0F4B102788A4204F1FF3417D013F0B7
:10480800030F184603F10103F3D1032C14D884B124
:1048180003788B420BD00519431C02E002788A42C8
:1048280005D0AB42184603F10103F7D1002070BC54
:104838007047204670BC704741EA0126024646EAA6
:1048480006461046043203687340A3F1013525EA91
:10485800030313F0803FDAD1043C032C1046F0D850
:10486800D5E71446D1E71046E1E700BF844641EAA0
:10487800000313F003036DD1403A41D351F8043BD0
:1048880040F8043B51F8043B40F8043B51F8043B22
:1048980040F8043B51F8043B40F8043B51F8043B12
:1048A80040F8043B51F8043B40F8043B51F8043B02
:1048B80040F8043B51F8043B40F8043B51F8043BF2
:1048C80040F8043B51F8043B40F8043B51F8043BE2
:1048D80040F8043B51F8043B40F8043B51F8043BD2
:1048E80040F8043B51F8043B40F8043B51F8043BC2
:1048F80040F8043B51F8043B40F8043B403ABDD231
:10490800303211D351F8043B40F8043B51F8043BD2
:1049180040F8043B51F8043B40F8043B51F8043B91
:1049280040F8043B103AEDD20C3205D351F8043B61
:1049380040F8043B043AF9D2043208D0D2071CBF2D
:1049480011F8013B00F8013B01D30B880380604656
:10495800704700BF082A13D38B078DD010F00303CC
:104968008AD0C3F10403D21ADB071CBF11F8013B3C
:1049780000F8013B80D331F8023B20F8023B7BE78B
:10498800043AD9D3013A11F8013B00F8013BF9D2B6
:104998000B7803704B7843708B7883706046704750
:1049A80070B4840746D0541E002A41D0CDB20346C5
:1049B80002E0621EE4B3144603F8015B9A07F8D1DB
:1049C800032C2ED9CDB245EA05250F2C45EA05451D
:1049D80019D903F110022646103E0F2E42F8105C3A
:1049E80042F80C5C42F8085C42F8045C02F11002E0
:1049F800F2D8A4F1100222F00F0204F00F041032D2
:104A0800032C13440DD91E462246043A032A46F8BD
:104A1800045BFAD8221F22F003020432134404F084
:104A280003042CB1C9B21C4403F8011BA342FBD1F7
:104A380070BC704714460346C2E700BF704700BF0A
:104A4800704700BFC36C70B505460C464BB153F8B0
:104A5800240080B1026843F8242000230361C36066
:104A680070BD0421212200F0EBFBE8640346002816
:104A7800EDD1002070BD012101FA04F6721D28460F
:104A8800920000F0DDFB0028F3D044608660E4E784
:104A980031B1C36C4A6853F82200086043F8221009
:104AA800704700BFF0B50C6983B00D46064601F1AA
:104AB800140E0027DEF8001088B2090C02FB003340
:104AC80002FB01F101EB134101379BB203EB0143F8
:104AD800BC424EF8043B4FEA1143EBDC3BB1AA68F9
:104AE800944207DA05EB8402013453612C612846AD
:104AF80003B0F0BD6968019301313046FFF7A2FFAA
:104B08002A69023205F10C01074692000C30FFF7C2
:104B1800ADFEF26C6968019B52F82100286042F8EA
:104B280021503D46DEE700BF030C1B04B3B9000467
:104B3800102310F07F4F04BF0002083310F0704FAD
:104B480004BF0001043310F0404F04BF800002335B
:104B5800002807DB420003D4202070470023E8E741
:104B6800581C704718467047036813F0070207D0AF
:104B7800D90720D49A0720D49B08036002207047E5
:104B880099B209B91B0C102213F0FF0F04BF1B0ABE
:104B98000832190704BF1B090432990704BF9B0890
:104BA8000232D90704D45B0801D1202070470132B2
:104BB800036010467047002070475B0803600120BF
:104BC800704700BF10B50C460121FFF73BFF0122DB
:104BD8004461026110BD00BF2DE9F04F0F691669ED
:104BE800B74283B00D461446C0F28D8033463E4628
:104BF8001F46AB68696806EB07089845C8BF0131CE
:104C0800FFF720FF00F1140C0CEB8809CC4500904D
:104C180005D26346002143F8041B9945FBD804F1EB
:104C2800140202EB870A05F11403524503EB860EC2
:104C380054D2CDF80490994652F8043B1FFA83FBEE
:104C4800BBF1000F20D000204F466646054600E025
:104C58001E4657F8044B3068A1B283B20BFB0131F2
:104C6800240C000C4B190BFB040000EB134099B209
:104C7800334641EA0041BE454FEA104543F8041B5C
:104C8800E6D8756052F8043C5FEA134B20D0DCF894
:104C98000030674618464D46002100E037462C880C
:104CA800000C0BFB040001449CB23E4644EA01435D
:104CB80046F8043B786855F8044B83B2240C0BFB88
:104CC800043404EB1143AE454FEA1341E6D87B6048
:104CD80092450CF1040CAFD8DDF80490B8F1000F40
:104CE8000BDD59F8043CA9F104091BB105E059F89A
:104CF800043D13B9B8F10108F9D10098C0F8108043
:104D080003B0BDE8F08F15460C4672E712F00303B6
:104D18002DE9F041144607460E462DD1A4101CD0AB
:104D2800BD6C95B3E3074FF0000806D4641014D0A7
:104D38002868A8B10546E307F8D5384631462A461B
:104D4800FFF74AFFB6B17268FB6C641053F8221083
:104D5800316043F822600646EAD13046BDE8F0816A
:104D680029462A463846FFF737FF2860C0F80080F2
:104D78000546E0E70646D9E75A1E0B4D002355F8CD
:104D88002220FFF78FFE0646C8E701213846FFF7C5
:104D980059FE40F27121012200234161026105465A
:104DA800B8640360BEE700BF986E00082DE9F047BD
:104DB8000F698B684FEA62194F447D1C9D420E466D
:104DC80014464968804604DD5B009D4201F10101FB
:104DD800FADC4046FFF736FEB9F1000F00F1140186
:104DE80009DD00239E460A4601334B4542F804EB91
:104DF800FAD101EB8301326906F1140314F01F0C98
:104E080003EB820E1FD0CCF1200900221C6804FAA3
:104E18000CF414438A4641F8044B53F8044B9E455E
:104E280024FA09F2F2D8CAF8042002B1BD1CD8F855
:104E38004C307268013D53F822100561316043F827
:104E48002260BDE8F087043953F8042B41F8042F99
:104E58009E45F9D8EBE700BF02690B69D21A13D156
:104E68009B0014301431194410B4034401E09842F3
:104E78000CD253F8044D51F8042D9442F7D009D3BD
:104E880001205DF8044B70471046704700205DF81C
:104E9800044B70474FF0FF305DF8044B704700BF7C
:104EA8002DE9F0410E460546114630461446FFF7F7
:104EB800D3FF071E54D04DDB4FF000087168284619
:104EC800FFF7C0FD37692369C0F80C80143604F178
:104ED800140202EB830C00F1140506EB870E002385
:104EE80056F8048B52F8044B13FA88F3A1B2240C39
:104EF800591AC4EB184303EB214389B241EA034131
:104F0800944545F8041B4FEA23433446E8D8B64590
:104F1800AC4615D954F8042B13FA82F1130C03EBA1
:104F2800214389B241EA0341A64545F8041B4FEAEB
:104F38002343EFD8F643764426F003050435654449
:104F4800043D21B955F8043D013F002BFAD0076113
:104F5800BDE8F08133464FF0010826461C46ADE710
:104F680028463946FFF76EFD012347610361BDE816
:104F7800F08100BF2DE9F04182B001211C46C3F346
:104F88000A571546089EFFF75DFDC4F313048046D3
:104F98000FB144F4801401941DB302A840F8085DD1
:104FA800FFF7E2FD002834D19DE80C00C8F8142072
:104FB800002B14BF02240124C8F81830C8F8104088
:104FC800DFB908EB8403A0F2324030601869FFF7BC
:104FD800ABFD099BC0EB44101860404602B0BDE829
:104FE800F08101A8FFF7C0FD0124019BC8F8143027
:104FF8002030C8F81040002FE3D0099BA7F23347B0
:105008000744C0F1350037601860404602B0BDE87B
:10501800F0819DE80C00C0F1200103FA01F10A4378
:10502800C3400193C8F81420C2E700BF10B431F0A0
:10503800004408D0114BA1F580129A4208D80420E8
:105048005DF8044B704718B902205DF8044B7047AF
:1050580001F1FF41094B01F5E0019942EFD9B4F59F
:10506800801F01D20320EBE7054B9C4201D00020B2
:10507800E6E7B0FA80F04009E2E700BFFFFFDF7F14
:105088000000F07F38B5074C00230546084623602A
:10509800FBF7D0FE431C00D038BD2368002BFBD0A3
:1050A8002B6038BD4009002010B50C46B1F90E1030
:1050B80000F0D6FB002803DB236D0344236510BDF5
:1050C800A38923F48053A38110BD00BF2DE9F041CB
:1050D80016468A891D46D3050C46074606D5002282
:1050E800B1F90E10022300F043FBA289B4F90E10A7
:1050F80022F48052A281384632462B46BDE8F04160
:1051080000F08AB810B50C46B1F90E1000F030FB6B
:10511800A389421C0EBF23F4805343F480532065B7
:10512800A38110BDB1F90E1000F0BAB820F0030148
:1051380010F00300C0F1000051F8043B00F1040C2A
:105148004FEACC0C6FF000021CBF22FA0CF213439A
:105158004FF0010C4CEA0C2C4CEA0C4CA3EB0C0263
:1051680022EA030212EACC1204BF51F8043B0430CD
:10517800F4D0C2F1000102EA0102B2FA82F2C2F1ED
:105188001F0200EBD20070474B6E2DE9F0479C04DC
:105198000F4692462BD59368126833B3804602F1C6
:1051A800080919E96000B60817D0043D002401E099
:1051B800A64210D0404655F8041F3A4600F0C4F8FD
:1051C800431C04F10104F3D10023CAF80830CAF8DB
:1051D8000430BDE8F087DAF80830A3EB8603CAF894
:1051E800083009F10809002BDBD10020ECE700F0BA
:1051F80021F90023CAF80830CAF80430BDE8F0875E
:10520800936810B41BB15DF8044BFFF7BDBF184697
:1052180053605DF8044B704770B5084C064600258E
:10522800084611461A462560FBF738FE431C00D095
:1052380070BD2368002BFBD0336070BD400900208F
:1052480010B502FB01F1FFF739F8044668B150F8D0
:10525800042C22F00302043A242A18D8132A06D868
:10526800034600221A605A609A60204610BD002347
:105278001B2A036043600FD9242A8360C36005BFDB
:105288000361436100F1100300F11803E9E700210D
:10529800FFF786FB204610BD00F10803E1E700BFD9
:1052A80038B5074C002305460846236001F0B4FCD6
:1052B800431C00D038BD2368002BFBD02B6038BDC1
:1052C8004009002000293DD070B505460C4608B1BC
:1052D800836B7BB3B4F90C300BB9002070BD284642
:1052E8002146FEF7D5FCE36A064633B12846E16954
:1052F80098470028B8BF4FF0FF36A3891B061CD477
:10530800216B41B104F14003994202D02846FEF7CF
:1053180055FE00232363616C21B12846FEF74EFE3B
:1053280000236364FEF7F8FD0023A381FEF7F6FD72
:10533800304670BDFEF7EAFDCCE728462169FEF746
:105348003DFEDDE7002070472DE9F04193891446C2
:105358009A0482B007460E4606D4626E43F40053A0
:1053680042F40052A3816266FEF72EFF012841D065
:10537800384601A9324604F15C0300F0CFFCB0F1D5
:10538800FF3F80462FD000283CD09DF80410002510
:1053980009E0236819702368013323600135A845A3
:1053A80030D901AB595DA368013B002BA360F0DA4B
:1053B800A269934207DB23681970236819780A29C0
:1053C80003F10103E9D13846224600F053FCA0F16D
:1053D800FF30B0FA80F040090028DFD04FF0FF30EE
:1053E80002B0BDE8F081A38943F04003A38102B075
:1053F800BDE8F081731EFE2BBAD8F1B280468DF855
:105408000410C4E7304602B0BDE8F08138B5084C56
:105418000023054608461146236001F005FC431C9D
:1054280000D038BD2368002BFBD02B6038BD00BFEF
:10543800400900209368002B7AD02DE9F04FB1F88D
:105448000CE01EF0080F83B00C468146164626D0A5
:105458000B6923B30EF002081FFA88F0356870B3A1
:105468004FF0000ADFF8E0B2D046D845434652462E
:1054780028BF5B464846B8F1000F53D0E169676A18
:10548800B847002873DDB3681B1A8244C0EB0808CC
:10549800B360002BE9D1002003B0BDE8F08F484687
:1054A8002146FDF7AFFB002840F04581B4F80CE039
:1054B80035680EF002081FFA88F00028D0D11EF0D7
:1054C800010B5DD1D846B8F1000F25D01EF4007F3E
:1054D800A7682FD0B845BA46C0F0A9801EF4906FCF
:1054E80040F0B68020685246594600F055F9A06849
:1054F8002268C01B02EB0A03A06023604046B36821
:105508001B1A8344C0EB0808B360002BC3D0B4F85F
:105518000CE0B8F1000FD9D1D5F800B0D5F8048067
:105528000835D0E7D5F800A0D5F8048008359CE701
:105538000020704720682369984203D86269904523
:1055480080F0B980474528BF47463A46594600F09B
:1055580023F9A3682268DB1B3A44A3602260002B6E
:105568004AD148462146FEF73DFC002844D0A3898D
:1055780043F040034FF0FF30A38103B0BDE8F08F44
:105588008046009083468246BAF1000F2CD0009BDB
:10559800002B50D020682169D4F808E06269D04512
:1055A800434628BF534688421F4604D90EEB020CD7
:1055B800634500F39280934220DB1346676AE169F2
:1055C80048465A46B847071ED1DDB8EB070825D02C
:1055D800B368DB1BBB44C7EB0A0AB360002B3FF47C
:1055E8005AAFBAF1000FD2D10023D5F800B0D5F8E0
:1055F80004A000930835C7E7384680E71A4659469D
:10560800019300F0C9F8A2682168019BB8EB07086C
:10561800A2EB03020B44A2602360D9D1484621467D
:10562800FEF7E0FB0028A2D1CDF80080D0E7206883
:105638004746C24657E758460A215246FFF7CCF874
:10564800002873D001300123CBEB00080093A1E7B9
:1056580067692169236807EB47075B1A07EBD77768
:10566800581C7F10404487423A463CBF07463A469A
:105678001EF4806F009346D011464846FEF71EFE82
:10568800009B8246002859D01A4621690093FFF7EB
:10569800EDF8A289009B22F4906242F08002A28178
:1056A8000AEB0300FB1AC4F810A067612060A3602E
:1056B8004746C24617E76FF00043434528BF4346B5
:1056C800676A93FBF2F3484603FB02F3E1695A4623
:1056D800B84700283FF713AF49E762465946CDF867
:1056E80004C000F059F82368DDF804C0634423605F
:1056F80048462146FEF776FBDDF804C000287FF413
:1057080036AF674661E7484600F0BEF8009B824620
:105718000028C5D148462169FEF750FCA3890C2210
:1057280023F080039BB2C9F8002021E701230AF186
:10573800010800932EE74FF0FF30ADE60C23C9F8BF
:105748000030A38914E700BF00FCFF7F38B5074C81
:10575800002305460846236001F06EFA431C00D07A
:1057680038BD2368002BFBD02B6038BD40090020D2
:1057780070B5084C06460025084611461A462560AD
:1057880001F062FA431C00D070BD2368002BFBD0E7
:10579800336070BD400900208842F0B50DD98B18E0
:1057A80098420AD28118002A54D09A1A13F8014D47
:1057B80001F8014D9342F9D1F0BD0F2A48D940EACA
:1057C80001039B0747D100F1100401F110031546AE
:1057D80053F8106C44F8106C53F80C6C44F80C6CCB
:1057E80053F8086C44F8086C103D53F8046C44F8FE
:1057F800046C0F2D03F1100304F11004E8D8A2F192
:10580800100323F00F0302F00F0E1033BEF1030F45
:105818001944034421D91E1F0D467446043C55F80B
:10582800047B46F8047F032CF8D8AEF1040424F076
:10583800030404342344214402F0030252B1013B1F
:105848000A4411F8014B03F8014F9142F9D1F0BD18
:105858000346F3E7F0BD0346F1E77246EEE700BF03
:1058680070B5084C06460025084611461A462560BC
:1058780001F0F2F9431C00D070BD2368002BFBD067
:10588800336070BD400900202DE9F04F174683B002
:105898000E46002900F0E780814607F10B05FFF767
:1058A800CDF856F8043C162D23F00304A6F1080899
:1058B8004CD810221546AF424DD8944280F28480CD
:1058C800DFF8ACB3DBF8080008EB0401884200F00D
:1058D800D680486820F0010E8E44DEF804E01EF001
:1058E800010F3FD120F003002044904280F2C18094
:1058F800DB0700F18F8056F8083CC3EB080ADAF89A
:10590800043023F0030300EB030E964534DBCB6829
:105918008A685746D3609A6057F8081FDAF80C303F
:10592800CB60221F242A996000F23681132A40F2A4
:10593800FD803368CAF808307368CAF80C301B2A2F
:1059480000F2408108360AF11003F0E025F007055F
:10595800002D2A46AFDA0C230020C9F8003003B026
:10596800BDE8F08FD90755D456F8083CC3EB080AB0
:10597800DAF8043023F00303234493424ADB574602
:10598800DAF80C1057F8080F221F242AC160886023
:1059980000F20E81132A40F209813168CAF8081012
:1059A8007168CAF80C101B2A00F2218108360AF126
:1059B80010023168116071685160B16891601C46CD
:1059C800DAF804303E46D046621B0F2A03F0010382
:1059D8000ED823434444C8F80430636843F00103F5
:1059E80063604846FFF72CF8304603B0BDE8F08FF7
:1059F80008EB05011D4342F001030A44C8F80450AE
:105A08004B60536843F00103083153604846FEF782
:105A1800D5FAE6E739464846FEF750FC0746D8B1BE
:105A280056F8043C23F001024244A0F108019142D7
:105A380000F0AC80221F242A00F29980132A6AD829
:105A480003463246116819605168596092689A6035
:105A580031464846FEF7B2FA4846FEF7F1FF3846A7
:105A680003B0BDE8F08F114603B0BDE8F04FFEF774
:105A780025BCCA6889680446CA609160A4E7416881
:105A880021F00301214405F1100081425BDADB07B4
:105A9800C0D456F8083CC3EB080ADAF8043023F0FF
:105AA800030301EB030C60453FF766AF5746DAF88E
:105AB8000C3057F8081F221F242ACB60996000F287
:105AC800B880132A40F2A9803368CAF8083073688E
